:020000040800F2
:1000000000000120E5150008C1140008C71400080D
:10001000CD140008D3140008D91400080000000013
:10002000000000000000000000000000DF140008D5
:10003000ED14000800000000FB140008091500087A
:100040003516000835160008351600083516000864
:100050003516000835160008351600083516000854
:100060003516000835160008351600083516000844
:100070003516000835160008351600083516000834
:100080003516000835160008191500080000000094
:10009000000000000000000000000000351600080D
:1000A0003516000835160008351600083516000804
:1000B00035160008351600083516000835160008F4
:1000C00035160008351600083516000835160008E4
:1000D0003516000835160008351600080000000027
:1000E0003516000835160008351600080000000017
:1000F00000000000000000000000000035160008AD
:1001000000000000351600083516000835160008F6
:1001100000000000000000000000000000000000DF
:100120002D1500083516000835160008351600088C
:10013000351600080000000000000000000000006C
:100140000000000000000000000000004115000851
:100150003516000835160008351600083516000853
:1001600035160008351600080000000000000000E9
:10017000000000000000000000000000000000007F
:10018000000000003516000800000000000000001C
:040190003516000818
:1001A00010B5054C237833B9044B13B10448AFF3B1
:1001B00000800123237010BD7401002000000000A6
:1001C00078A4000808B5034B1BB103490348AFF3FB
:1001D000008008BD000000007801002078A400081D
:1001E000034613F8012B002AFBD1181A0138704777
:1001F00001F0FF01102A2BDB10F0070F08D010F8D8
:10020000013B013A8B422DD010F0070F42B3F6D1DB
:10021000F0B441EA012141EA014122F007047FF0F4
:1002200000070023F0E80256083C85EA010586EA4B
:10023000010685FA47F5A3FA87F586FA47F6A5FA87
:1002400087F68EB9EED1F0BC01F0FF0102F0070293
:1002500032B110F8013B013A83EA010313B1F8D13E
:100260000020704701387047002D06BF354603381F
:10027000073815F0010F07D1013015F4807F02BF58
:10028000013015F4C03F0130F0BC0138704700BFA9
:1002900053B94AB9002908BF00281CBF4FF0FF31ED
:1002A0004FF0FF3000F070B9ADF1080C6DE904CEED
:1002B00000F006F8DDF804E0DDE9022304B0704741
:1002C0002DE9F047089E0D4604460F46002B4AD103
:1002D0008A42944665D9B2FA82F343B102FA03FC2A
:1002E000C3F120029F4020FA02F217439C404FEADC
:1002F0001C4E1FFA8CF5B7FBFEF1220C0EFB11779A
:1003000042EA074201FB05F090420AD91CEB0202C7
:1003100001F1FF3780F01C81904240F219810239CF
:100320006244121AA4B2B2FBFEF00EFB102244EAA1
:10033000024400FB05F5A5420AD91CEB040400F1B8
:10034000FF3280F00781A54240F204816444023804
:1003500040EA0140641B00211EB1DC400023C6E9D5
:100360000043BDE8F0878B4208D9002E00F0ED80F5
:100370000021C6E900050846BDE8F087B3FA83F11D
:10038000002949D1AB4202D3824200F2F880841A9C
:1003900065EB030201201746002EE2D0C6E90047B4
:1003A000DFE702B9FFDEB2FA82F3002B40F0908063
:1003B0008A1A4FEA1C471FFA8CFE0121B2FBF7F59F
:1003C00007FB1520220C42EA00420EFB05F090428A
:1003D00008D91CEB020205F1FF3802D2904200F26C
:1003E000CB804546121AA4B2B2FBF7F007FB1022ED
:1003F00044EA02440EFB00FEA64508D91CEB0404A7
:1004000000F1FF3202D2A64500F2BB801046A4EBF9
:100410000E0440EA05409FE7C1F120078B4022FA15
:1004200007FC4CEA030C05FA01F420FA07F3FD403F
:100430004FEA1C492343B5FBF9F81FFA8CFE09FB70
:1004400018551C0C44EA054408FB0EF5A54202FAB7
:1004500001F200FA01F00BD91CEB040408F1FF3A99
:1004600080F08880A54240F28580A8F102086444AB
:10047000641B9DB2B4FBF9F309FB134445EA044441
:1004800003FB0EFEA64508D91CEB040403F1FF355F
:100490006CD2A6456AD9023B644443EA0843A3FBF5
:1004A0000295A4EB0E04AC42C846AE4656D353D0D8
:1004B00056B1B0EB080264EB0E0404FA07F7CA4029
:1004C000CC401743C6E9007418460021BDE8F08708
:1004D000C3F1200102FA03FC20FA01F225FA01F12E
:1004E0009D402A434FEA1C471FFA8CFEB1FBF7F0F0
:1004F00007FB1015110C41EA054100FB0EF58D427A
:1005000004FA03F408D91CEB010100F1FF382FD2E3
:100510008D422DD902386144491B92B2B1FBF7F5E7
:1005200007FB151142EA014205FB0EF1914208D981
:100530001CEB020205F1FF3816D2914214D9023D9C
:100540006244521A45EA004138E73146304608E72E
:100550003946E6E61046FBE64845A9D2B9EB020863
:1005600065EB0C0E013BA3E74546EAE72B4694E713
:100570004046D1E7D0467BE7023D624432E7084679
:100580000AE76444023842E7704700BF80B487B08E
:1005900000AF78607B6807EE903AF8EE677AC7EDB7
:1005A000057A324B1B683B613B69FB60304B93ED36
:1005B000007A304BD3ED007A77EE277A2E4BC3EDDD
:1005C000007A2D4BD3ED006A2B4B93ED007A2B4B29
:1005D000D3ED007A37EE277AC6EE877A284BC3ED43
:1005E000007A224BD3ED007A97ED057A37EE677AE1
:1005F000234BD3ED007A67EE277A97ED037A77EEF7
:10060000277AC7ED027A1E4BD3ED007AB7EE007A57
:1006100037EE677A184BD3ED007A67EE277A144BE2
:10062000C3ED007A124B1B68134A13607B6807EE18
:10063000903AF8EE677A134BC3ED007A0B4ABB6829
:100640001360D7ED027AFDEEE77A17EE902A0E4B93
:100650001A60D7ED027AFCEEE77A17EE903A184668
:100660001C37BD465DF8047B704700BFB49F002077
:10067000AC9F00201C00002024000020200000204F
:10068000B09F0020A89F0020B89F002080B582B0B6
:1006900000AF7860384B01221A60384B1B68013379
:1006A000364A1360364B1B889BB21A46354B1A608C
:1006B000354B1B78012B24D1344B1B68B3F5FA6FF3
:1006C00018D2324B1B682F4A1268314941F8232057
:1006D0002E4B1B682F4A52F823301846FFF756FF5F
:1006E00003461A462C4B1A60284B1B680133274AD5
:1006F00013602EE0244B02221A70244B00221A6051
:1007000027E0214B1B78022B23D1204B1B68B3F52C
:10071000FA6F18D21D4B1B681A4A12681D4941F81E
:1007200023201A4B1B681A4A52F823301846FFF749
:100730002DFF03461A46184B1A60144B1B680133F1
:10074000124A136005E0104B01221A700F4B002271
:100750001A60114B1B68B3F5A07F02DD0F4B01221D
:100760001A7001231A4606490D4801F04FF900BFDF
:100770000837BD4680BD00BF50030020580300204D
:10078000440300205C0300201800002060030020C8
:100790006403002084510020B89F0020BC9F0020EB
:1007A0009001002080B500AF914B1B78012B40F0E9
:1007B000E480904B1B6801338E4A13608E4B1B699B
:1007C0001A468C4B1B689A4240D28B4B5B691A4687
:1007D0008A4B1B689A4240F2D080884B1B680133D9
:1007E000864A1360844B5B691A46844B1B689A42A5
:1007F00014D9834B1B68132B00F2BF807E4B5B69BF
:10080000142292FBF3F31A467D4B1B6813447C4A77
:1008100013607C4A7A4B1B68D363AEE0794B0022AD
:10082000DA63774B00221A60714B00221A70714B09
:1008300000221A60714B00221A60734B01221A7059
:1008400001220121714802F0A5FA96E06A4B9B68EB
:100850001A46684B1B689A4248D2674BDB681A46B7
:10086000664B1B689A4226D9644B1B680133634A66
:100870001360614BDB681A46604B1B689A4214D9BF
:100880005F4B1B68132B16D85B4BDB68142292FB63
:10089000F3F31A465A4B1B6813440133584A13604A
:1008A000584A574B1B68536305E0564B00225A6366
:1008B000534B00221A60504B9B6864331A464D4BD1
:1008C0001B689A4207D1504B01221A700122012164
:1008D0004E4802F05FFA484B1B691A46454B1B68AD
:1008E0009A424AD1454B00221A6046E0424B1B68AF
:1008F0001A46404B1B689A423FD23F4B5B681A46F0
:100900003E4B1B689A422ED93C4B1B6801333B4A35
:100910001360394B5B681A46384B1B689A4219D9E9
:10092000374B1B68132B0FD8334B5B68142292FB99
:10093000F3F31A46324B1B6813440133304A1360F9
:10094000304A2F4B1B68D363002201212F4802F04D
:1009500021FA08E02B4B0022DA63294B00221A60AF
:10096000294B01221A70244B9B681A46214B1B68A5
:100970009A4202D1214B00221A601D4B1B78022B98
:1009800040F005811B4B1B6801331A4A13601A4B58
:100990001B691A46174B1B689A4251D2164B5B696A
:1009A0001A46164B1B689A4240F2F180134B1B68A3
:1009B0000133124A1360104B5B691A460F4B1B68D8
:1009C0009A4225D90E4B1B68132B00F2E0800A4B8C
:1009D0005B69142292FBF3F31A46094B1B6813441C
:1009E000074A1360074A064B1B68D363CFE000BF7A
:1009F000A59F00205403002000000020C802002012
:100A0000C09F002000000140BC9F00200004024065
:100A1000604B0022DA63604B00221A605F4B0022B9
:100A20001A705F4B00221A605E4B00221A605E4B08
:100A300001221A70012201215C4802F0ABF9A6E004
:100A40005B4B9B681A46564B1B689A424DD2584BDB
:100A5000DB681A46534B1B689A4226D9514B1B68D8
:100A60000133504A1360524BDB681A464D4B1B68EA
:100A70009A4214D9484B1B68132B16D84C4BDB6891
:100A8000142292FBF3F31A46434B1B6813440133C1
:100A9000414A13603F4A404B1B68536305E03D4B9E
:100AA00000225A633C4B00221A60414B9B6864331E
:100AB0001A463B4B1B689A4207D13B4B01221A70E6
:100AC00001220121394802F065F9394B1B691A46A8
:100AD000334B1B689A425AD1324B00221A600122D2
:100AE0000121324802F056F951E0314B1B681A4699
:100AF0002B4B1B689A424AD22D4B5B681A46294BF6
:100B00001B689A4234D9274B1B680133254A13606E
:100B1000274B5B681A46234B1B689A4219D91E4B18
:100B20001B68132B0FD8224B5B68142292FBF3F344
:100B30001A46194B1B6813440133174A1360154AB0
:100B4000154B1B68D36300220221184802F022F9DA
:100B500013E0104B0022DA630F4B00221A60124B95
:100B600001221A7001220221104802F013F904E058
:100B7000002201210D4802F00DF90D4B9B681A4629
:100B8000074B1B689A4202D1064B00221A6000BF35
:100B900080BD00BF00000140C09F0020A59F002035
:100BA00054030020C8020020BC9F00200004024023
:100BB0000000002080B483B000AF78607B681B78B1
:100BC000312B02D10B4B01221A707B681B78322B20
:100BD00002D1084B02221A707B681B78332B02D19A
:100BE000054B01221A7000BF0C37BD465DF8047B2F
:100BF000704700BFA59F0020A49F002080B586B04D
:100C000002AF0023FB600023BB6000237B6000F089
:100C100013FD00F0E3F800F0C5FA00F0A3FA00F0CD
:100C200049F900F053FA08F05BFA00F095F9012257
:100C30004021564802F0AEF801228021534802F0CC
:100C4000A9F801220121524802F0A4F801231A4612
:100C50005049514800F0DAFE504803F0B1FF00213E
:100C60004F4804F061F804214D4804F05DF8082174
:100C70004B4804F059F84B4B00225A6300F042FDF8
:100C8000B860012000F04AFD464B00225A63454BF4
:100C900000229A63434B0022DA6300F033FD0246E0
:100CA000FB6803F57A739A4259D900F02BFDF8607E
:100CB0003D4B1B68012B52D13B4B00221A60354B38
:100CC0001B889BB21846394B1968394B1B68394A47
:100CD0001268019200930B4602463749374808F0E4
:100CE00027FF344B00221A60354B1B78012B36D17D
:100CF000334B00221A7000237B602DE0314B1B78B0
:100D0000022B0DD1304A7B6852F823207B683233A6
:100D10002D4951F823302D49284808F009FF0CE0EF
:100D20002B4A7B6852F823207B686433284951F8AA
:100D300023302649214808F0FBFE2048FFF750FAEF
:100D400003469BB219461D4808F0A0FA142000F093
:100D5000E5FC7B6801337B607B687F2BCED900F09C
:100D6000D1FC0246BB6803F6B8339A4202D900F0C0
:100D7000C9FCB860174B1B78DBB2012B8DD1154B2A
:100D800000221A701448FFF715FF86E700000240A2
:100D90000004024044030020900100208002002053
:100DA000380200200000014050030020B89F0020BE
:100DB0005C0300205803002090A4000810030020CA
:100DC000A49F00201800002064030020B0A40008A5
:100DD000845100200C030020CC02002080B594B088
:100DE00000AF07F1200330220021184608F0C0FEB2
:100DF00007F10C0300221A605A609A60DA601A61E7
:100E00000023BB60294B1B6C284A43F080531364BA
:100E1000264B1B6C03F08053BB60BB6800237B60D8
:100E2000234B1B6823F44043214A43F400431360DF
:100E30001F4B1B6803F440437B607B6801233B62CC
:100E40004FF480337B620223BB634FF48003FB6368
:100E500019233B644FF4A8737B640423BB6407230A
:100E6000FB6407F12003184603F02AFA0346002B1F
:100E700001D000F007FA0F23FB6002233B6100233F
:100E80007B614FF48053BB610023FB6107F10C03CE
:100E90000221184603F08CFC0346002B01D000F021
:100EA000F1F900BF5037BD4680BD00BF0038024099
:100EB0000070004080B584B000AF3B4600221A604D
:100EC0005A609A60DA60224B224A1A60204B4FF433
:100ED00080325A601E4B00229A601D4B00221A611C
:100EE0001B4B00221A761A4B002283F82020184B45
:100EF0004FF08052DA62164B4FF0C0629A62144B88
:100F00000022DA60124B0122DA61114B002283F8D1
:100F100030200F4B01225A610D4800F023FC03469C
:100F2000002B01D000F0AEF901233B6001237B6070
:100F30000023BB603B461946054800F075FE03469A
:100F4000002B01D000F09EF900BF1037BD4680BDD8
:100F5000900100200020014080B596B000AF07F15D
:100F6000480300221A605A609A60DA6007F1400371
:100F700000221A605A6007F1240300221A605A60A6
:100F80009A60DA601A615A619A613B1D2022002141
:100F9000184608F0EDFD4B4B4B4A1A60494B202296
:100FA0005A60484B00229A60464B2022DA60454B3B
:100FB00000221A61434B00225A61424B80229A61FF
:100FC000404803F0ADFD0346002B01D000F05AF974
:100FD0004FF48053BB6407F148031946394804F0C5
:100FE00015F80346002B01D000F04CF9354803F00A
:100FF00041FE0346002B01D000F044F900233B647E
:1010000000237B6407F1400319462E4804F092FB4D
:101010000346002B01D000F035F960237B620823E2
:10102000BB620023FB6200233B6300237B6300233E
:10103000BB630023FB6307F1240300221946214808
:1010400003F022FF0346002B01D000F01BF907F14B
:101050002403042219461B4803F016FF0346002B05
:1010600001D000F00FF90023BB6207F1240308222E
:101070001946144803F008FF0346002B01D000F086
:1010800001F900237B600023BB600023FB60002389
:101090003B6100237B614FF40053BB6100233B6243
:1010A0003B1D1946074804F0B3FB0346002B01D053
:1010B00000F0E8F8034800F0C9F900BF5837BD4612
:1010C00080BD00BF380200200000014080B586B01E
:1010D00000AF07F1080300221A605A609A60DA60D4
:1010E0003B4600221A605A601D4B4FF080421A6046
:1010F0001B4B80225A601A4B00229A60184B3222F6
:10110000DA60174B00221A61154B80229A6114484D
:1011100003F006FD0346002B01D000F0B3F84FF4B6
:101120008053BB6007F1080319460D4803F06EFFBA
:101130000346002B01D000F0A5F820233B600023DC
:101140007B603B461946064804F0F4FA0346002B40
:1011500001D000F097F800BF1837BD4680BD00BF32
:101160008002002080B582B000AF00237B600C4B72
:101170001B6B0B4A43F480031363094B1B6B03F493
:1011800080037B607B6800220021382001F0D1F8C9
:10119000382001F0EAF800BF0837BD4680BD00BF27
:1011A0000038024080B588B000AF07F10C03002280
:1011B0001A605A609A60DA601A610023BB602E4B95
:1011C0001B6B2D4A43F0800313632B4B1B6B03F007
:1011D0008003BB60BB6800237B60274B1B6B264AE8
:1011E00043F001031363244B1B6B03F001037B608B
:1011F0007B6800233B60204B1B6B1F4A43F00203BC
:1012000013631D4B1B6B03F002033B603B68002222
:1012100040211A4801F0BEFD00228021174801F04C
:10122000B9FD00220121164801F0B4FD012206217A
:10123000134801F0AFFDC023FB6001233B61002395
:101240007B610023BB6107F10C0319460B4801F0D9
:101250001DFC0723FB6001233B6100237B6100230E
:10126000BB6107F10C031946054801F00FFC00BFF4
:101270002037BD4680BD00BF00380240000002405C
:101280000004024080B400AF72B600BFFEE7000069
:1012900080B483B000AF00237B60104B5B6C0F4ABF
:1012A00043F4804353640D4B5B6C03F480437B60D9
:1012B0007B6800233B60094B1B6C084A43F080535A
:1012C0001364064B1B6C03F080533B603B6800BF0C
:1012D0000C37BD465DF8047B704700BF0038024004
:1012E00080B58AB000AF786007F1140300221A605D
:1012F0005A609A60DA601A617B681B68334A9342CD
:101300005FD100233B61324B5B6C314A43F4807305
:1013100053642F4B5B6C03F480733B613B69002388
:10132000FB602B4B1B6B2A4A43F001031363284BD2
:101330001B6B03F00103FB60FB6802237B6103234B
:10134000BB610023FB6107F114031946214801F03A
:101350009DFB214B214A1A601F4B00225A601E4BF5
:1013600000229A601C4B0022DA601B4B4FF4806213
:101370001A61194B4FF400625A61174B4FF4005237
:101380009A61154B4FF48072DA61134B00221A6296
:10139000114B00225A62104801F008F80346002B56
:1013A00001D0FFF76FFF7B680B4A9A630A4A7B689C
:1013B000936300220021122000F0BBFF122000F0F6
:1013C000D4FF00BF2837BD4680BD00BF00200140CC
:1013D0000038024000000240D801002010640240A2
:1013E00080B485B000AF78607B681B68154A934273
:1013F0000ED10023FB60144B5B6C134A43F00103D6
:101400005364114B5B6C03F00103FB60FB6812E05B
:101410007B681B68B3F1804F0DD10023BB600A4B82
:101420001B6C094A43F001031364074B1B6C03F068
:101430000103BB60BB6800BF1437BD465DF8047B89
:10144000704700BF000001400038024080B588B0FE
:1014500000AF786007F10C0300221A605A609A60AE
:10146000DA601A617B681B68124A93421ED100231E
:10147000BB60114B1B6B104A43F0010313630E4B0F
:101480001B6B03F00103BB60BB684FF4E063FB60C0
:1014900002233B6100237B610023BB610123FB61CD
:1014A00007F10C031946054801F0F0FA00BF203798
:1014B000BD4680BD000001400038024000000240EF
:1014C00080B400AFFEE780B400AFFEE780B400AFA9
:1014D000FEE780B400AFFEE780B400AFFEE780B463
:1014E00000AF00BFBD465DF8047B704780B400AF1D
:1014F00000BFBD465DF8047B704780B400AF00BFFD
:10150000BD465DF8047B704780B500AF00F0E6F89B
:1015100000F045FF00BF80BD80B500AF024800F07D
:1015200064F900BF80BD00BF9001002080B500AF0E
:10153000024801F041F800BF80BD00BFD801002083
:1015400080B500AF024801F08EFD00BF80BD00BF36
:10155000ACAC002080B586B000AF7860144A154B63
:10156000D31A7B617B693B61134B1B68002B02D153
:10157000114B124A1A60104B1A687B6813443A697F
:101580009A4207D208F0FCFA03460C221A604FF088
:10159000FF3309E0084B1B68FB60074B1A687B6848
:1015A0001344054A1360FB6818461837BD4680BDD2
:1015B0000000012000040000C49F002020B500208E
:1015C00080B400AF064BD3F88830054A43F470036B
:1015D000C2F8883000BFBD465DF8047B704700BF8D
:1015E00000ED00E0DFF834D00D480E490E4A00232C
:1015F00002E0D458C4500433C4188C42F9D30B4AC7
:101600000B4C002301E013600432A242FBD3FFF72E
:10161000D7FF08F0BBFAFFF7F1FA7047000001208E
:1016200000000020740100205CA500087401002067
:1016300020B50020FEE7000080B500AF0E4B1B6810
:101640000D4A43F4007313600B4B1B680A4A43F4C2
:1016500080631360084B1B68074A43F48073136070
:10166000032000F05BFE0F2000F008F8FFF710FEEB
:101670000023184680BD00BF003C024080B582B008
:1016800000AF7860124B1A68124B1B7819464FF462
:101690007A73B3FBF1F3B2FBF3F3184600F073FE79
:1016A0000346002B01D001230EE07B680F2B0AD8E4
:1016B000002279684FF0FF3000F03BFE064A7B685D
:1016C0001360002300E0012318460837BD4680BDA3
:1016D00028000020300000202C00002080B400AF43
:1016E000064B1B781A46064B1B681344044A1360CA
:1016F00000BFBD465DF8047B704700BF300000208E
:10170000C89F002080B400AF034B1B681846BD463D
:101710005DF8047B704700BFC89F002080B584B08F
:1017200000AF7860FFF7EEFFB8607B68FB60FB6896
:10173000B3F1FF3F05D00A4B1B781A46FB681344F0
:10174000FB6000BFFFF7DEFF0246BB68D31AFA68F2
:101750009A42F7D800BF00BF1037BD4680BD00BF1A
:101760003000002080B584B000AF78600023FB73A8
:101770007B68002B01D1012333E07B681B6C002BBD
:1017800009D17868FFF7ACFD7B6800225A647B685A
:10179000002283F83C207B681B6C03F01003002BB5
:1017A00018D17B681B6C23F4885323F0020343F0A9
:1017B00002027B681A64786800F058FB7B6800229C
:1017C0005A647B681B6C23F0030343F001027B68BF
:1017D0001A6401E00123FB737B68002283F83C203C
:1017E000FB7B18461037BD4680BD80B586B000AF84
:1017F000786000237B6100233B617B681B681B686A
:10180000FB607B681B685B68BB60FB6803F00203DE
:101810007B61BB6803F020033B617B69002B49D0EF
:101820003B69002B46D07B681B6C03F01003002B38
:1018300005D17B681B6C43F400727B681A647B687B
:101840001B689B6803F04053002B2BD17B681B7EE9
:10185000002B27D17B681B68DB6A03F47003002B25
:1018600006D07B681B689B6803F48063002B19D14A
:101870007B681B685A687B681B6822F020025A60EC
:101880007B681B6C23F480727B681A647B681B6C1A
:1018900003F48053002B05D17B681B6C43F00102DD
:1018A0007B681A647868FEF7F1FE7B681B686FF04E
:1018B00012021A60FB6803F004037B61BB6803F04B
:1018C00080033B617B69002B57D03B69002B54D0D0
:1018D0007B681B6C03F01003002B05D17B681B6C2D
:1018E00043F400527B681A647B681B689B6803F4AE
:1018F0004013002B39D17B681B689B6B03F44013AA
:10190000002B06D07B681B689B6803F48063002B68
:101910002BD17B681B685B6803F48063002B24D1A8
:101920007B681B689B6803F04053002B1DD17B68CC
:101930001B7E002B19D17B681B685A687B681B686B
:1019400022F080025A607B681B6C23F480527B6813
:101950001A647B681B6C03F48073002B05D17B68D1
:101960001B6C43F001027B681A64786800F0FCFB92
:101970007B681B686FF00C021A60FB6803F00103C0
:101980007B61BB6803F040033B617B69002B17D090
:101990003B69002B14D07B681B681B6803F00103B4
:1019A000012B0DD17B681B6C43F480327B681A6479
:1019B000786800F025F97B681B686FF001021A60F7
:1019C000FB6803F020037B61BB6803F080633B612D
:1019D0007B69002B15D03B69002B12D07B685B6CB8
:1019E00043F002027B685A647B681B686FF0200238
:1019F0001A60786800F00EF97B681B686FF02002AF
:101A00001A6000BF1837BD4680BD000080B586B0A3
:101A100000AFF860B9607A6000233B61FB6893F81F
:101A20003C30012B01D10223CEE0FB68012283F878
:101A30003C20FB681B689B6803F00103012B18D056
:101A4000FB681B689A68FB681B6842F001029A6099
:101A50005F4B1B685F4AA2FB03239A0C13465B0093
:101A600013443B6102E03B69013B3B613B69002B56
:101A7000F9D1FB681B689B6803F48073B3F5807F22
:101A800007D1FB681B689A68FB681B6822F48072A8
:101A90009A60FB681B689B6803F00103012B40F010
:101AA0008680FB681B6C23F4E06323F0010343F49E
:101AB0008072FB681A64FB681B685B6803F48063D0
:101AC000002B07D0FB681B6C23F4405343F4805277
:101AD000FB681A64FB681B6C03F48053B3F5805FEA
:101AE00006D1FB685B6C23F00602FB685A6402E0D7
:101AF000FB6800225A64FB68002283F83C20364BC6
:101B00007B61FB689B6B354ADA63FB689B6B344AED
:101B10001A64FB689B6B334ADA64FB681B686FF0DE
:101B200022021A60FB681B685A68FB681B6842F057
:101B300080625A60FB681B689A68FB681B6842F405
:101B400080729A60FB68986BFB681B684C3319467F
:101B5000BA687B6800F0D8FC7B695B6803F01F0300
:101B6000002B0FD1FB681B689B6803F04053002BD0
:101B700029D1FB681B689A68FB681B6842F08042A9
:101B80009A6020E0FB681B68174A93421BD1FB68F0
:101B90001B689B6803F04053002B14D1FB681B6843
:101BA0009A68FB681B6842F080429A600BE0FB6811
:101BB0001B6C43F01002FB681A64FB685B6C43F01B
:101BC0000102FB685A64002318461837BD4680BDE1
:101BD0002800002083DE1B4300230140652000080D
:101BE0001F2100083B2100080020014080B483B081
:101BF00000AF786000BF0C37BD465DF8047B7047CE
:101C000080B483B000AF786000BF0C37BD465DF88C
:101C1000047B704780B483B000AF786000BF0C379E
:101C2000BD465DF8047B704780B485B000AF786036
:101C300039600023BB607B6893F83C30012B01D1F5
:101C4000022305E17B68012283F83C203B681B6886
:101C5000092B25D97B681B68D9683B681B689BB238
:101C60001A4613465B0013441E3B072202FA03F395
:101C7000DA437B681B680A40DA607B681B68D968B6
:101C80003B689A683B681B689BB2184603465B003A
:101C900003441E3B9A407B681B680A43DA6022E0DB
:101CA0007B681B6819693B681B689BB21A46134620
:101CB0005B001344072202FA03F3DA437B681B68D4
:101CC0000A401A617B681B6819693B689A683B681F
:101CD0001B689BB2184603465B0003449A407B682E
:101CE0001B680A431A613B685B68062B24D87B6833
:101CF0001B68596B3B685A6813469B001344053BAD
:101D00001F2202FA03F3DA437B681B680A405A6316
:101D10007B681B68596B3B681B689BB218463B6825
:101D20005A6813469B001344053B00FA03F27B6894
:101D30001B680A435A634CE03B685B680C2B24D851
:101D40007B681B68196B3B685A6813469B001344F9
:101D5000233B1F2202FA03F3DA437B681B680A4025
:101D60001A637B681B68196B3B681B689BB218463B
:101D70003B685A6813469B001344233B00FA03F266
:101D80007B681B680A431A6323E07B681B68D96A77
:101D90003B685A6813469B001344413B1F2202FADA
:101DA00003F3DA437B681B680A40DA627B681B68CE
:101DB000D96A3B681B689BB218463B685A68134651
:101DC0009B001344413B00FA03F27B681B680A4303
:101DD000DA62224BFB607B681B68214A934209D17F
:101DE0003B681B68122B05D1FB685B6843F48002DB
:101DF000FB685A607B681B68194A934223D13B6891
:101E00001B68102B03D03B681B68112B1BD1FB6890
:101E10005B6843F40002FB685A603B681B68102B48
:101E200011D1104B1B68104AA2FB03239A0C1346D6
:101E30009B0013445B00BB6002E0BB68013BBB60DE
:101E4000BB68002BF9D17B68002283F83C2000237B
:101E500018461437BD465DF8047B704700230140E7
:101E6000002001402800002083DE1B4380B485B0A1
:101E700000AF7860794BFB60FB685B6823F440320D
:101E8000FB685A60FB685A687B685B681A43FB68AA
:101E90005A607B681B685A687B681B6822F48072F2
:101EA0005A607B681B6859687B681B691A027B68EB
:101EB0001B680A435A607B681B685A687B681B680A
:101EC00022F040725A607B681B6859687B689A6888
:101ED0007B681B680A435A607B681B689A687B684A
:101EE0001B6822F400629A607B681B6899687B68B3
:101EF000DA687B681B680A439A607B689B6A584A69
:101F0000934222D07B681B689A687B681B6822F02A
:101F100070629A607B681B6899687B689A6A7B68C4
:101F20001B680A439A607B681B689A687B681B6819
:101F300022F040529A607B681B6899687B68DA6A75
:101F40007B681B680A439A600FE07B681B689A688D
:101F50007B681B6822F070629A607B681B689A68D5
:101F60007B681B6822F040529A607B681B689A6805
:101F70007B681B6822F002029A607B681B68996884
:101F80007B681B7E5A007B681B680A439A607B68EB
:101F900093F82030002B1BD07B681B685A687B6845
:101FA0001B6842F400625A607B681B685A687B6851
:101FB0001B6822F460425A607B681B6859687B6822
:101FC0005B6A013B5A037B681B680A435A6007E05F
:101FD0007B681B685A687B681B6822F400625A6041
:101FE0007B681B68DA6A7B681B6822F47002DA621D
:101FF0007B681B68D96A7B68DB69013B1A057B68D3
:102000001B680A43DA627B681B689A687B681B68F6
:1020100022F400729A607B681B6899687B6893F869
:1020200030305A027B681B680A439A607B681B68E1
:102030009A687B681B6822F480629A607B681B68E0
:1020400099687B685B699A027B681B680A439A609F
:1020500000BF1437BD465DF8047B70470023014084
:102060000100000F80B584B000AF78607B689B6B87
:10207000FB60FB681B6C03F05003002B3CD1FB683A
:102080001B6C43F40072FB681A64FB681B689B6856
:1020900003F04053002B2BD1FB681B7E002B27D174
:1020A000FB681B68DB6A03F47003002B06D0FB6837
:1020B0001B689B6803F48063002B19D1FB681B68C5
:1020C0005A68FB681B6822F020025A60FB681B6C90
:1020D00023F48072FB681A64FB681B6C03F4805362
:1020E000002B05D1FB681B6C43F00102FB681A64EE
:1020F000F868FEF7CBFA0EE0FB681B6C03F01003E8
:10210000002B03D0F868FFF785FD04E0FB689B6BAC
:10211000DB6C7868984700BF1037BD4680BD80B53E
:1021200084B000AF78607B689B6BFB60F868FFF75A
:102130005DFD00BF1037BD4680BD80B584B000AFE7
:1021400078607B689B6BFB60FB6840221A64FB68CD
:102150005B6C43F00402FB685A64F868FFF75AFDB1
:1021600000BF1037BD4680BD80B483B000AF78603B
:1021700000BF0C37BD465DF8047B704780B485B066
:1021800000AF78607B6803F00703FB600C4BDB68F3
:10219000BB60BA684FF6FF031340BB60FB681A02CE
:1021A000BB68134343F0BF6343F40033BB60044A8E
:1021B000BB68D36000BF1437BD465DF8047B704731
:1021C00000ED00E080B400AF044BDB681B0A03F0B5
:1021D00007031846BD465DF8047B704700ED00E03C
:1021E00080B483B000AF0346FB7197F90730002B32
:1021F0000BDBFB7903F01F02074997F907305B09F6
:10220000012000FA02F241F8232000BF0C37BD463E
:102210005DF8047B704700BF00E100E080B483B04C
:1022200000AF03463960FB7197F90730002B0ADBDA
:102230003B68DAB20C4997F907301201D2B20B446D
:1022400083F800230AE03B68DAB20849FB7903F01F
:102250000F03043B1201D2B20B441A7600BF0C37B5
:10226000BD465DF8047B704700E100E000ED00E052
:1022700080B489B000AFF860B9607A60FB6803F0A1
:102280000703FB61FB69C3F10703042B28BF042389
:10229000BB61FB690433062B02D9FB69033B00E0F9
:1022A00000237B614FF0FF32BB6902FA03F3DA438C
:1022B000BB681A407B699A404FF0FF317B6901FA95
:1022C00003F3D9437B680B40134318462437BD46BC
:1022D0005DF8047B7047000080B582B000AF786085
:1022E0007B68013BB3F1807F01D301230FE00A4AF1
:1022F0007B68013B53600F214FF0FF30FFF78EFFEB
:10230000054B00229A60044B07221A6000231846EE
:102310000837BD4680BD00BF10E000E080B582B048
:1023200000AF78607868FFF729FF00BF0837BD4627
:1023300080BD80B586B000AF0346B9607A60FB739C
:1023400000237B61FFF73EFF78617A68B96878699E
:10235000FFF78EFF024697F90F3011461846FFF738
:102360005DFF00BF1837BD4680BD80B582B000AFAD
:102370000346FB7197F907301846FFF731FF00BF9E
:102380000837BD4680BD80B582B000AF7860786800
:10239000FFF7A2FF034618460837BD4680BD80B54B
:1023A00000AFFEF7FFF900BF80BD000080B586B02A
:1023B00000AF786000237B61FFF7A4F938617B6888
:1023C000002B01D1012399E07B68022283F835209C
:1023D0007B68002283F834207B681B681A687B685E
:1023E0001B6822F001021A600FE0FFF78BF902462A
:1023F0003B69D31A052B08D97B6820225A657B6874
:10240000032283F83520032378E07B681B681B6870
:1024100003F00103002BE8D17B681B681B687B611C
:102420007A69384B13407B617B685A687B689B688C
:102430001A437B68DB681A437B681B691A437B6815
:102440005B691A437B689B691A437B68DB691A43A3
:102450007B681B6A13437A6913437B617B685B6A01
:10246000042B07D17B68DA6A7B681B6B13437A699C
:1024700013437B617B681B687A691A607B681B6801
:102480005B697B617B6923F007037B617B685B6A27
:102490007A6913437B617B685B6A042B17D17B6885
:1024A0009B6A7A6913437B617B68DB6A002B0ED0E1
:1024B000786800F06FFA0346002B08D07B68402252
:1024C0005A657B68012283F83520012316E07B687A
:1024D0001B687A695A61786800F026FA0346FB6047
:1024E0007B68DB6D3F229A40FB689A607B68002224
:1024F0005A657B68012283F8352000231846183777
:10250000BD4680BD3F8010F080B586B000AFF8605A
:10251000B9607A603B600023FB75FB689B6D3B6193
:10252000FB6893F83430012B01D1022340E0FB68B3
:10253000012283F83420FB6893F83530DBB2012B9D
:102540002FD1FB68022283F83520FB6800225A65F0
:102550003B687A68B968F86800F0B8F9FB68DB6D29
:102560003F229A403B699A60FB681B681A68FB68C7
:102570001B6842F016021A60FB681B6C002B07D028
:10258000FB681B681A68FB681B6842F008021A6047
:10259000FB681B681A68FB681B6842F001021A603E
:1025A00005E0FB68002283F834200223FB75FB7DE5
:1025B00018461837BD4680BD80B586B000AF78603C
:1025C0000023BB608E4B1B688E4AA2FB03239B0A31
:1025D0007B617B689B6D3B613B691B68FB607B6833
:1025E000DB6D08229A40FB681340002B1AD07B68F1
:1025F0001B681B6803F00403002B13D07B681B6867
:102600001A687B681B6822F004021A607B68DB6D25
:1026100008229A403B699A607B685B6D43F0010237
:102620007B685A657B68DB6D01229A40FB6813402A
:10263000002B12D07B681B685B6903F08003002BC2
:102640000BD07B68DB6D01229A403B699A607B6806
:102650005B6D43F002027B685A657B68DB6D042288
:102660009A40FB681340002B12D07B681B681B68E4
:1026700003F00203002B0BD07B68DB6D04229A4031
:102680003B699A607B685B6D43F004027B685A6526
:102690007B68DB6D10229A40FB681340002B43D00F
:1026A0007B681B681B6803F00803002B3CD07B6829
:1026B000DB6D10229A403B699A607B681B681B683F
:1026C00003F48023002B18D07B681B681B6803F47D
:1026D0000023002B08D17B681B6C002B24D07B6867
:1026E0001B6C786898471FE07B689B6C002B1BD0A5
:1026F0007B689B6C7868984716E07B681B681B6852
:1027000003F48073002B07D17B681B681A687B6811
:102710001B6822F008021A607B681B6C002B03D038
:102720007B681B6C786898477B68DB6D20229A4039
:10273000FB681340002B00F08F807B681B681B68D0
:1027400003F01003002B00F087807B68DB6D2022F4
:102750009A403B699A607B6893F83530DBB2052B71
:1027600036D17B681B681A687B681B6822F01602EA
:102770001A607B681B685A697B681B6822F08002BC
:102780005A617B681B6C002B03D17B689B6C002B10
:1027900007D07B681B681A687B681B6822F00802F8
:1027A0001A607B68DB6D3F229A403B699A607B68C8
:1027B000012283F835207B68002283F834207B686F
:1027C0001B6D002B7ED07B681B6D7868984779E085
:1027D0007B681B681B6803F48023002B1DD07B687B
:1027E0001B681B6803F40023002B0DD17B685B6C16
:1027F000002B31D07B685B6C786898472CE000BF79
:1028000028000020B5814E1B7B68DB6B002B23D09A
:102810007B68DB6B786898471EE07B681B681B68E9
:1028200003F48073002B0FD17B681B681A687B68E8
:102830001B6822F010021A607B68012283F83520A1
:102840007B68002283F834207B68DB6B002B03D08D
:102850007B68DB6B786898477B685B6D002B32D0B8
:102860007B685B6D03F00103002B22D07B6805229F
:1028700083F835207B681B681A687B681B6822F028
:1028800001021A60BB680133BB607A699A4207D3C0
:102890007B681B681B6803F00103002BF2D100E08A
:1028A00000BF7B68012283F835207B68002283F813
:1028B00034207B68DB6C002B05D07B68DB6C786890
:1028C000984700E000BF1837BD4680BD80B485B092
:1028D00000AFF860B9607A603B60FB681B681A68FB
:1028E000FB681B6822F480221A60FB681B683A6848
:1028F0005A60FB689B68402B08D1FB681B687A68AC
:102900009A60FB681B68BA68DA6007E0FB681B68BE
:10291000BA689A60FB681B687A68DA6000BF14378F
:10292000BD465DF8047B704780B485B000AF786029
:102930007B681B68DBB2103B144AA2FB03231B0914
:10294000FB60134AFB6813441B781A467B68DA6500
:10295000FB68032B09D97B681B6823F47F7323F082
:1029600003031A1D7B689A6507E07B681B6823F4E4
:102970007F7323F003037A6893657B689B6D184629
:102980001437BD465DF8047B704700BFABAAAAAA06
:1029900010A5000880B485B000AF78600023FB73F9
:1029A0007B689B6ABB607B689B69002B1FD1BB68FF
:1029B000032B56D801A252F823F000BFCD290008FE
:1029C000DF290008CD290008632A00087B68DB6A3C
:1029D00003F08073002B46D00123FB7343E07B6838
:1029E000DB6AB3F1C07F40D10123FB733DE07B681C
:1029F0009B69B3F5005F21D1BB68032B37D801A2D7
:102A000052F823F0152A00081B2A0008152A00088E
:102A10002D2A00080123FB7330E07B68DB6A03F09A
:102A20008073002B25D00123FB7322E07B68DB6AD7
:102A3000B3F1C07F1FD10123FB731CE0BB68022BE5
:102A400003D9BB68032B03D018E00123FB7315E007
:102A50007B68DB6A03F08073002B0ED00123FB73CD
:102A60000BE000BF0AE000BF08E000BF06E000BFC7
:102A700004E000BF02E000BF00E000BFFB7B18469F
:102A80001437BD465DF8047B704700BF80B489B041
:102A900000AF7860396000237B6100233B61002335
:102AA000BB610023FB6159E10122FB6902FA03F3D8
:102AB0007B613B681B687A6913403B613A697B69BB
:102AC0009A4240F048813B685B6803F00303012BA6
:102AD00005D03B685B6803F00303022B30D17B68B1
:102AE0009B68BB61FB695B00032202FA03F3DB43D3
:102AF000BA691340BB613B68DA68FB695B0002FAA4
:102B000003F3BA691343BB617B68BA699A607B6857
:102B10005B68BB610122FB6902FA03F3DB43BA691C
:102B20001340BB613B685B681B0903F00102FB6952
:102B300002FA03F3BA691343BB617B68BA695A604E
:102B40003B685B6803F00303032B17D07B68DB68EB
:102B5000BB61FB695B00032202FA03F3DB43BA6942
:102B60001340BB613B689A68FB695B0002FA03F3A0
:102B7000BA691343BB617B68BA69DA603B685B681A
:102B800003F00303022B23D1FB69DA087B680832C8
:102B900053F82230BB61FB6903F007039B000F224F
:102BA00002FA03F3DB43BA691340BB613B681A695D
:102BB000FB6903F007039B0002FA03F3BA691343AE
:102BC000BB61FB69DA087B680832B96943F82210F7
:102BD0007B681B68BB61FB695B00032202FA03F39D
:102BE000DB43BA691340BB613B685B6803F00302D7
:102BF000FB695B0002FA03F3BA691343BB617B68AC
:102C0000BA691A603B685B6803F44033002B00F03C
:102C1000A2800023FB60574B5B6C564A43F4804311
:102C20005364544B5B6C03F48043FB60FB68524A73
:102C3000FB699B08023352F82330BB61FB6903F048
:102C400003039B000F2202FA03F3DB43BA6913402C
:102C5000BB617B68494A934219D07B68484A9342DA
:102C600013D07B68474A93420DD07B68464A934213
:102C700007D07B68454A934201D1042308E007232B
:102C800006E0032304E0022302E0012300E0002326
:102C9000FA6902F0030292009340BA691343BB61E0
:102CA0003549FB699B080233BA6941F82320384B48
:102CB0009B68BB613B69DB43BA691340BB613B68FE
:102CC0005B6803F48013002B03D0BA693B6913439C
:102CD000BB612F4ABB6993602D4BDB68BB613B69CD
:102CE000DB43BA691340BB613B685B6803F40013C4
:102CF000002B03D0BA693B691343BB61244ABB690B
:102D0000D360234B5B68BB613B69DB43BA6913400B
:102D1000BB613B685B6803F40033002B03D0BA69E6
:102D20003B691343BB611A4ABB695360184B1B686C
:102D3000BB613B69DB43BA691340BB613B685B68BD
:102D400003F48033002B03D0BA693B691343BB61A2
:102D50000F4ABB691360FB690133FB61FB690F2BF1
:102D60007FF6A2AE00BF00BF2437BD465DF8047BEE
:102D7000704700BF003802400038014000000240A8
:102D80000004024000080240000C02400010024013
:102D9000003C014080B483B000AF78600B467B807C
:102DA00013467B707B78002B03D07A887B689A610E
:102DB00003E07B881A047B689A6100BF0C37BD462C
:102DC0005DF8047B7047F0B58FB00AAF78607B6820
:102DD000002B01D101230FE17B681B68BB607B687E
:102DE00093F8BD34DBB2002B06D17B68002283F858
:102DF000BC24786806F092FB7B68032283F8BD242C
:102E0000BB68DB6B03F48073002B02D17B6800226C
:102E10001A617B681B68184602F061FE7B681B68BC
:102E20003B607E686D4606F110040FCC0FC50FCCD9
:102E30000FC594E8030085E80300331D0ECB386806
:102E400002F038FD0346002B05D07B68022283F890
:102E5000BD240123D0E07B681B680021184602F0E6
:102E60004FFE0023FB734AE0FA7B79681346DB00D0
:102E700013449B000B443D3301221A70FA7B79689E
:102E80001346DB0013449B000B443C33FA7B1A705F
:102E9000FA7BFB7B98B279681346DB0013449B00F6
:102EA0000B44443302461A80FA7B79681346DB00F0
:102EB00013449B000B44403300221A70FA7B79685C
:102EC0001346DB0013449B000B44483300221A6076
:102ED000FA7B79681346DB0013449B000B444C33A8
:102EE00000221A60FA7B79681346DB0013449B00CA
:102EF0000B44543300221A60FB7B0133FB73FA7BD3
:102F00007B685B689A42AFD30023FB7344E0FA7B93
:102F100079681346DB0013449B000B4403F27D23C6
:102F200000221A70FA7B79681346DB0013449B0079
:102F30000B4403F51F73FA7B1A70FA7B796813460A
:102F4000DB0013449B000B4403F5207300221A702E
:102F5000FA7B79681346DB0013449B000B4403F5AE
:102F6000227300221A60FA7B79681346DB0013444F
:102F70009B000B4403F5237300221A60FA7B7968E7
:102F80001346DB0013449B000B4403F5257300221A
:102F90001A60FB7B0133FB73FA7B7B685B689A42A8
:102FA000B5D37B681B683B607E686D4606F11004F4
:102FB0000FCC0FC50FCC0FC594E8030085E80300C4
:102FC000331D0ECB386802F0E7FD0346002B05D019
:102FD0007B68022283F8BD2401230DE07B68002278
:102FE00083F838207B68012283F8BD247B681B6846
:102FF000184603F036FF002318461437BD46F0BDCF
:1030000080B584B000AF78607B681B68FB607B682C
:1030100093F8BC34012B01D1022320E07B6801220C
:1030200083F8BC247B689B6A012B09D17B689B6970
:10303000012B05D0FB689B6B43F48032FB689A63DD
:103040007B681B68184602F039FD7B681B681846D0
:1030500003F0E6FE7B68002283F8BC2400231846B8
:103060001037BD4680BD90B58DB000AF78607B68ED
:103070001B683B623B6AFB617B681B68184603F078
:10308000A4FF0346002B40F08A847B681B68184627
:1030900003F008FF0346002B00F08084FB6903F572
:1030A00000639B681B0AC3F30D027B68C3F8FC2412
:1030B0007B681B68184603F0F5FE034603F0020325
:1030C000022B07D17B681B685A697B681B6802F07A
:1030D00002025A617B681B68184603F0E3FE034650
:1030E00003F01003102B61D17B681B689A697B6821
:1030F0001B6822F010029A613B6A1B6ABB61BB69C4
:1031000003F00F021346DB0013449B0003F51E730C
:103110007A68134404337B61BB695B0C03F00F03D3
:10312000022B24D1BA6947F6F0731340002B35D037
:103130007B691969BB691B099BB2C3F30A039BB284
:103140001A46386A03F01AFD7B691A69BB691B09C4
:10315000C3F30A031A447B691A617B691A6ABB6963
:103160001B09C3F30A031A447B691A6216E0BB69A0
:103170005B0C03F00F03062B10D17B6803F2C443F2
:1031800008221946386A03F0F9FC7B691A6ABB69A0
:103190001B09C3F30A031A447B691A627B681B6824
:1031A0009A697B681B6842F010029A617B681B6811
:1031B000184603F077FE034603F40023B3F5002F0F
:1031C00040F0A78000237B627B681B68184603F0F1
:1031D0007CFEB86299E0BB6A03F00103002B00F0AB
:1031E0008E807B681B687A6AD2B21146184603F05B
:1031F000A0FE38613B6903F00103002B0CD07B6A11
:103200005A01FB69134403F530631A4601239360A6
:10321000796A786800F0C2FE3B6903F00803002B6E
:103220000CD07B6A5A01FB69134403F530631A46DC
:1032300008239360796A786800F098FF3B6903F08F
:103240001003002B08D07B6A5A01FB69134403F575
:1032500030631A46102393603B6903F00203002B8E
:1032600030D03B6A5B6903F08003802B09D1FB6996
:1032700003F500635B68FA6902F5006243F480635A
:1032800053607A6A1346DB0013449B0003F51E73F8
:103290007A68134404337B617B69DB78012B08D1A6
:1032A0007B690022DA707B6ADBB21946786806F027
:1032B00031FA7B6A5A01FB69134403F530631A46FD
:1032C000022393603B6903F02003002B08D07B6A44
:1032D0005A01FB69134403F530631A4620239360B7
:1032E0003B6903F40053002B09D07B6A5A01FB6948
:1032F000134403F530631A464FF4005393607B6A1E
:1033000001337B62BB6A5B08BB62BB6A002B7FF444
:1033100062AF7B681B68184603F0C4FD034603F4E4
:103320008023B3F5802F40F0DB807B681B68184654
:1033300003F0E5FDB86200237B62CDE0BB6A03F0D9
:103340000103002B00F0C2807B681B687A6AD2B24E
:103350001146184603F00BFE38613B6903F0010388
:10336000002B57D07B6A03F00F03012202FA03F30C
:10337000FB60FB6903F500635A6BFB68DB43F9698B
:1033800001F5006113404B637B6A5A01FB691344EA
:1033900003F510631A46012393607B681B69012BB8
:1033A00032D179687A6A1346DB0013449B000B44E0
:1033B0004C33196878687A6A1346DB0013449B0023
:1033C000034448331B68194478687A6A1346DB0063
:1033D00013449B0003444C3319607B6A002B13D1C8
:1033E00079687A6A1346DB0013449B000B4454331C
:1033F0001B68002B08D17B6818687B6803F2C44304
:103400001A46012103F012FE7B6ADBB21946786886
:1034100006F005F93B6903F00803002B08D07B6A2E
:103420005A01FB69134403F510631A46082393609D
:103430003B6903F01003002B08D07B6A5A01FB693B
:10344000134403F510631A46102393603B6903F09D
:103450004003002B08D07B6A5A01FB69134403F533
:1034600010631A46402393603B6903F00203002B6C
:1034700023D0796A386A02F0F3FC7A6A1346DB00DB
:1034800013449B0038337A68134404337B617B69AF
:10349000DB78012B08D17B690022DA707B6ADBB212
:1034A0001946786806F048F97B6A5A01FB691344AB
:1034B00003F510631A46022393603B6903F080030F
:1034C000002B03D0796A786800F0DBFC7B6A01335B
:1034D0007B62BB6A5B08BB62BB6A002B7FF42EAFCA
:1034E0007B681B68184603F0DDFC034603F00043CD
:1034F000B3F1004F22D1FB6903F500635B68FA6901
:1035000002F5006223F0010353607B6893F8F43402
:10351000012B08D17B68002283F8F424002178680D
:1035200000F0C2FE02E0786806F0E6F87B681B68EF
:103530005A697B681B6802F000425A617B681B680D
:10354000184603F0AFFC034603F40063B3F5006FC5
:1035500012D1FB6903F500639B6803F00103012BA3
:1035600002D1786806F0A2F87B681B685A697B680C
:103570001B6802F400625A617B681B68184603F0FE
:1035800091FC034603F48053B3F5805F40F0B780AD
:10359000FB6903F500635B68FA6902F5006223F0DA
:1035A000010353607B681B681021184602F058FC29
:1035B0000023FB6246E0FB6A5A01FB69134403F5F2
:1035C00010631A464FF67F339360FB6A5A01FB691A
:1035D000134403F510631B68FA6A5101FA690A443F
:1035E00002F5106223F400131360FB6A5A01FB69B1
:1035F000134403F530631A464FF67F339360FB6A3A
:103600005A01FB69134403F530631B68FA6A5101E0
:10361000FA690A4402F5306223F400131360FB6A6E
:103620005A01FB69134403F530631B68FA6A5101C0
:10363000FA690A4402F5306243F000631360FB6AE2
:103640000133FB627B685B68FA6A9A42B3D3FB6919
:1036500003F50063DB69FA6902F5006243F00113C8
:10366000D3617B681B6B002B16D0FB6903F50063ED
:10367000D3F88430FA6902F5006243F00B03C2F814
:103680008430FB6903F500635B6CFA6902F5006244
:1036900043F00B03536415E0FB6903F500635B69BA
:1036A000FA6902F5006243F4005343F02B035361BF
:1036B000FB6903F500631B69FA6902F5006243F0D8
:1036C0000B031361FB6903F500631B68FA6902F5DC
:1036D000006223F4FE6313607B6818687B681B69D3
:1036E000D9B27B6803F2C4431A4603F09FFC7B689F
:1036F0001B685A697B681B6802F480525A617B68B8
:103700001B68184603F0CEFB034603F40053B3F5E1
:10371000005F24D17B681B68184603F064FC7B685B
:103720001B68184602F019FC03461A467B68DA60EB
:103730007B681C6801F0E8F901467B68DB68DBB256
:103740001A46204602F018F9786805F090FF7B6869
:103750001B685A697B681B6802F400525A617B68D7
:103760001B68184603F09EFB034603F00803082B72
:103770000AD1786805F06DFF7B681B685A697B6821
:103780001B6802F008025A617B681B68184603F048
:1037900089FB034603F08003802B22D13B6A9B699F
:1037A00023F080023B6A9A6101237B6214E079680E
:1037B0007A6A1346DB0013449B000B4403F27F2319
:1037C0001B78012B05D17B6ADBB21946786800F0C3
:1037D00027FB7B6A01337B627B685B687A6A9A426B
:1037E000E5D37B681B68184603F05CFB034603F4D3
:1037F0008013B3F5801F3BD101237B622BE07B6AF2
:103800005A01FB69134403F510631B68BB617968B7
:103810007A6A1346DB0013449B000B4440331B7849
:10382000012B15D1BB69002B12DA79687A6A13462D
:10383000DB0013449B000B443F3301221A707B6A68
:10384000DBB263F07F03DBB21946786800F0E8FA78
:103850007B6A01337B627B685B687A6A9A42CED36B
:103860007B681B685A697B681B6802F480125A6186
:103870007B681B68184603F015FB034603F400132E
:10388000B3F5001F55D101237B6245E07B6A5A01E5
:10389000FB69134403F530631B68BB6179687A6A7E
:1038A0001346DB0013449B000B4403F520731B7885
:1038B000012B2ED1BB69002B2BDABB6903F48032BC
:1038C0007B68D3F8FC3403F001039A4221D1796874
:1038D0007A6A1346DB0013449B000B4403F27F23F8
:1038E00001221A703B6A9B6943F080023B6A9A612D
:1038F0003B6A5B6903F08003002B0AD1FB6903F587
:1039000000635B68FA6902F5006243F40073536078
:1039100007E07B6A01337B627B685B687A6A9A4264
:10392000B4D37B681B685A697B681B6802F4001279
:103930005A617B681B68184603F0B4FA034603F02B
:103940008043B3F1804F0AD1786805F007FF7B68A8
:103950001B685A697B681B6802F080425A617B6869
:103960001B68184603F09EFA034603F00403042B79
:1039700015D17B681B685B68BB61BB6903F00403FE
:10398000002B02D0786805F0F7FE7B681B68596849
:103990007B681B68BA690A435A6000E000BF34378D
:1039A000BD4690BD80B582B000AF78600B46FB701D
:1039B0007B6893F8BC34012B01D1022313E07B68B0
:1039C000012283F8BC247B68FA7883F838207B686E
:1039D0001B68FA781146184603F0FCF97B68002250
:1039E00083F8BC24002318460837BD4680BD80B547
:1039F00084B000AF7860084611461A460346FB7053
:103A00000B463B801346BB700023FB7297F90330D3
:103A1000002B0FDAFB7803F00F021346DB00134490
:103A20009B0038337A6813440433FB60FB6801223F
:103A30005A700FE0FB7803F00F021346DB001344CB
:103A40009B0003F51E737A6813440433FB60FB6824
:103A500000225A70FB7803F00F03DAB2FB681A7089
:103A60003A88FB68DA60FB68BA781A71FB685B78A1
:103A7000002B04D0FB681B789AB2FB681A81BB78D4
:103A8000022B02D1FB6800225A717B6893F8BC3488
:103A9000012B01D102230EE07B68012283F8BC24B4
:103AA0007B681B68F968184602F07CFA7B68002284
:103AB00083F8BC24FB7A18461037BD4680BD80B51C
:103AC00084B000AF78600B46FB7097F90330002B91
:103AD0000FDAFB7803F00F021346DB0013449B0060
:103AE00038337A6813440433FB60FB6801225A7050
:103AF0000FE0FB7803F00F021346DB0013449B003A
:103B000003F51E737A6813440433FB60FB680022DC
:103B10005A70FB7803F00F03DAB2FB681A707B6807
:103B200093F8BC34012B01D102230EE07B68012203
:103B300083F8BC247B681B68F968184602F0BAFA5F
:103B40007B68002283F8BC24002318461037BD464A
:103B500080BD80B586B000AFF8607A603B600B46F0
:103B6000FB72FB7A03F00F021346DB0013449B0049
:103B700003F51E73FA68134404337B617B697A682A
:103B80001A617B693A689A617B6900221A627B69D3
:103B900000225A70FB7A03F00F03DAB27B691A70C5
:103BA000FB681B69012B02D17A687B695A61FB7A39
:103BB00003F00F03002B09D1FB681868FB681B6931
:103BC000DBB21A46796902F099FD08E0FB681868D3
:103BD000FB681B69DBB21A46796902F047FB0023D8
:103BE00018461837BD4680BD80B483B000AF7860FA
:103BF0000B46FB70FB7803F00F0279681346DB007D
:103C000013449B000B4403F527731B6818460C37BD
:103C1000BD465DF8047B704780B586B000AFF860A4
:103C20007A603B600B46FB72FB7A03F00F0213468F
:103C3000DB0013449B003833FA68134404337B6180
:103C40007B697A681A617B693A689A617B690022AC
:103C50001A627B6901225A70FB7A03F00F03DAB211
:103C60007B691A70FB681B69012B02D17A687B693A
:103C70005A61FB7A03F00F03002B09D1FB68186827
:103C8000FB681B69DBB21A46796902F037FD08E070
:103C9000FB681868FB681B69DBB21A46796902F099
:103CA000E5FA002318461837BD4680BD80B584B0BC
:103CB00000AF78600B46FB70FB7803F00F027B6867
:103CC0005B689A4201D9012350E097F90330002B39
:103CD0000FDAFB7803F00F021346DB0013449B005E
:103CE00038337A6813440433FB60FB6801225A704E
:103CF0000DE0FA781346DB0013449B0003F51E73B6
:103D00007A6813440433FB60FB6800225A70FB6836
:103D100001229A70FB7803F00F03DAB2FB681A7085
:103D20007B6893F8BC34012B01D102231EE07B6831
:103D3000012283F8BC247B681B68F968184602F0EE
:103D400075FFFB7803F00F03002B0AD17B6818681E
:103D50007B681B69D9B27B6803F2C4431A4603F03F
:103D600065F97B68002283F8BC24002318461037CD
:103D7000BD4680BD80B584B000AF78600B46FB7057
:103D8000FB7803F00F027B685B689A4201D901233C
:103D900042E097F90330002B0FDAFB7803F00F02B3
:103DA0001346DB0013449B0038337A681344043312
:103DB000FB60FB6801225A700FE0FB7803F00F02F2
:103DC0001346DB0013449B0003F51E737A6813440B
:103DD0000433FB60FB6800225A70FB6800229A7073
:103DE000FB7803F00F03DAB2FB681A707B6893F874
:103DF000BC34012B01D102230EE07B68012283F841
:103E0000BC247B681B68F968184602F07DFF7B685C
:103E1000002283F8BC24002318461037BD4680BD1D
:103E200080B584B000AF78600B46FB7097F9033023
:103E3000002B0CDAFB7803F00F021346DB0013446F
:103E40009B0038337A6813440433FB600CE0FB7842
:103E500003F00F021346DB0013449B0003F51E73AF
:103E60007A6813440433FB607B681B68F968184662
:103E700002F09CFD0346FB72FB7A18461037BD46E4
:103E800080BD80B58AB002AF786039607B681B68FE
:103E90007B617B693B613A681346DB0013449B00FE
:103EA00038337A6813440433FB60FB681A6AFB6892
:103EB0009B699A4201D901236CE0FB689A69FB680F
:103EC0001B6AD31AFB61FB68DB68FA699A4202D964
:103ED000FB68DB68FB61FB6903339B08BB612BE07C
:103EE000FB689A69FB681B6AD31AFB61FB68DB6895
:103EF000FA699A4202D9FB68DB68FB61FB6903330C
:103F00009B08BB61FB6819693B68DAB2FB6998B230
:103F10007B681B69DBB200930346786902F0F0FD11
:103F2000FB681A69FB691A44FB681A61FB681A6A24
:103F3000FB691A44FB681A623B685A013B691344E7
:103F400003F510639B699BB2BA699A4209D8FB6872
:103F50001A6AFB689B699A4203D2FB689B69002B33
:103F6000BED1FB689A69FB681B6A9A4211D83B680C
:103F700003F00F03012202FA03F3BB603B6903F570
:103F800000635A6BBB68DB43396901F5006113407C
:103F90004B63002318462037BD4680BD80B588B0EE
:103FA00000AF786039607B681B68FB61FB69BB61AF
:103FB000FB693C3304331B687B613B685A01BB6976
:103FC000134403F530639B683B617B681B69012BDD
:103FD0007BD13B6903F00803002B15D07B69614A54
:103FE000934240F2B9803B6903F40043002B00F098
:103FF000B3803B685A01BB69134403F530631A462A
:104000004FF400439360A7E03B6903F02003002BCB
:1040100009D03B685A01BB69134403F530631A4663
:104020002023936098E03B6903F02803002B40F0C5
:1040300093807B694B4A93420FD93B6903F4004359
:10404000002B0AD03B685A01BB69134403F5306367
:104050001A464FF4004393607EE03A681346DB0053
:1040600013449B0003F51E737A6813440433FB600A
:10407000FB68DA693B685901BB690B4403F530639F
:104080001B69C3F31203D21AFB681A623B68002B48
:1040900014D1FB689B69002B09D17B6818687B6889
:1040A00003F2C4431A46012102F0C0FF06E0FB6898
:1040B0001A69FB681B6A1A44FB681A613B68DBB229
:1040C0001946786805F090FA46E07B69264A9342E3
:1040D00024D13B6903F40043002B0AD03B685A010A
:1040E000BB69134403F530631A464FF400439360F1
:1040F00032E03B6903F02003002B08D03B685A01F3
:10410000BB69134403F530631A46202393603B6870
:10411000DBB21946786805F067FA1DE03B68002BB2
:1041200014D179683A681346DB0013449B000B44B2
:1041300003F525731B68002B08D17B6818687B6822
:1041400003F2C4431A46002102F070FF3B68DBB261
:104150001946786805F048FA002318462037BD460E
:1041600080BD00BF0A30544F0A31544F80B586B02D
:1041700000AF786039607B681B687B617B693B615D
:104180007B693C3304331B68FB603B685A013B6925
:10419000134403F530639B68BB60FB68154A934288
:1041A0000ED9BB6803F40043002B09D03B685A01C9
:1041B0003B69134403F530631A464FF400439360A0
:1041C000786805F0FFF9FB680A4A93420CD97B68CE
:1041D0001B69012B08D17B6818687B6803F2C44314
:1041E0001A46012102F022FF002318461837BD4667
:1041F00080BD00BF0A30544F80B485B000AF7860F6
:104200000B46FB7013463B807B681B685B6ABB6098
:10421000FB78002B07D13B8819047B681B68BA68C0
:104220000A439A6228E07B681B689B6A1B0CBA6889
:104230001344BB600023FB730DE07B681A68FB7BB3
:1042400040339B0013445B681B0CBA681344BB608B
:10425000FB7B0133FB73FA7BFB78013B9A42ECD387
:104260003B8818047B681968FB78013BBA680243F5
:1042700040339B000B445A60002318461437BD4658
:104280005DF8047B704780B483B000AF78600B4664
:104290007B807B681B687A885A62002318460C373B
:1042A000BD465DF8047B704780B483B000AF786092
:1042B0000B46FB7000BF0C37BD465DF8047B7047B2
:1042C00080B586B000AF78607B68002B01D10123F8
:1042D00067E27B681B6803F00103002B75D0884BF5
:1042E0009B6803F00C03042B0CD0854B9B6803F0F8
:1042F0000C03082B12D1824B5B6803F48003B3F5E7
:10430000800F0BD17E4B1B6803F40033002B5BD076
:104310007B685B68002B57D1012342E27B685B68B6
:10432000B3F5803F06D1764B1B68754A43F4803362
:1043300013601DE07B685B68B3F5A02F0CD1704B58
:104340001B686F4A43F4802313606D4B1B686C4AF3
:1043500043F4803313600BE0694B1B68684A23F415
:1043600080331360664B1B68654A23F48023136017
:104370007B685B68002B13D0FDF7C4F9386108E057
:10438000FDF7C0F902463B69D31A642B01D9032318
:1043900007E25B4B1B6803F40033002BF0D014E002
:1043A000FDF7B0F9386108E0FDF7ACF902463B696A
:1043B000D31A642B01D90323F3E1514B1B6803F497
:1043C0000033002BF0D100E000BF7B681B6803F0D6
:1043D0000203002B63D04A4B9B6803F00C03002BB5
:1043E0000BD0474B9B6803F00C03082B1CD1444BAC
:1043F0005B6803F48003002B16D1414B1B6803F06C
:104400000203002B05D07B68DB68012B01D0012360
:10441000C7E13B4B1B6823F0F8027B681B69DB009C
:10442000374913430B603AE07B68DB68002B20D0F0
:10443000344B01221A60FDF765F9386108E0FDF799
:1044400061F902463B69D31A022B01D90323A8E183
:104450002B4B1B6803F00203002BF0D0284B1B688A
:1044600023F0F8027B681B69DB00254913430B60CE
:1044700015E0244B00221A60FDF744F9386108E08A
:10448000FDF740F902463B69D31A022B01D90323F9
:1044900087E11B4B1B6803F00203002BF0D17B6804
:1044A0001B6803F00803002B36D07B685B69002B88
:1044B00016D0154B01221A60FDF724F9386108E087
:1044C000FDF720F902463B69D31A022B01D90323D9
:1044D00067E10B4B5B6F03F00203002BF0D01BE096
:1044E000094B00221A60FDF70DF938610EE0FDF767
:1044F00009F902463B69D31A022B07D9032350E17D
:104500000038024000004742800E4742884B5B6FF4
:1045100003F00203002BEAD17B681B6803F004035D
:10452000002B00F097800023FB75814B1B6C03F080
:104530008053002B0FD10023BB607D4B1B6C7C4A4A
:1045400043F0805313647A4B1B6C03F08053BB60C1
:10455000BB680123FB75774B1B6803F48073002B4A
:1045600018D1744B1B68734A43F480731360FDF7D2
:10457000C9F8386108E0FDF7C5F802463B69D31A6F
:10458000022B01D903230CE16A4B1B6803F48073EF
:10459000002BF0D07B689B68012B06D1644B1B6F0E
:1045A000634A43F0010313671CE07B689B68052B9B
:1045B0000CD15F4B1B6F5E4A43F0040313675C4BE7
:1045C0001B6F5B4A43F0010313670BE0584B1B6FF3
:1045D000574A23F001031367554B1B6F544A23F0CE
:1045E000040313677B689B68002B15D0FDF78AF8DE
:1045F00038610AE0FDF786F802463B69D31A41F2BA
:104600008832934201D90323CBE0494B1B6F03F05F
:104610000203002BEED014E0FDF774F838610AE0D5
:10462000FDF770F802463B69D31A41F28832934293
:1046300001D90323B5E03E4B1B6F03F00203002BAF
:10464000EED1FB7D012B05D1394B1B6C384A23F091
:10465000805313647B689B69002B00F0A180344B6E
:104660009B6803F00C03082B5CD07B689B69022BD2
:1046700041D1314B00221A60FDF744F8386108E05F
:10468000FDF740F802463B69D31A022B01D90323F8
:1046900087E0274B1B6803F00073002BF0D17B6889
:1046A000DA697B681B6A1A437B685B6A9B011A4361
:1046B0007B689B6A5B08013B1B041A437B68DB6ACF
:1046C0001B061B4913434B601B4B01221A60FDF76D
:1046D00019F8386108E0FDF715F802463B69D31A6E
:1046E000022B01D903235CE0114B1B6803F000731C
:1046F000002BF0D054E0104B00221A60FDF702F8B6
:10470000386108E0FCF7FEFF02463B69D31A022B32
:1047100001D9032345E0064B1B6803F00073002B0F
:10472000F0D13DE07B689B69012B07D1012338E084
:104730000038024000700040600047421B4B5B683D
:10474000FB607B689B69012B28D0FB6803F4800227
:104750007B68DB699A4221D1FB6803F03F027B68EA
:104760001B6A9A421AD1FA6847F6C07313407A68F6
:10477000526A9201934211D1FB6803F440327B6884
:104780009B6A5B08013B1B049A4207D1FB6803F05C
:1047900070627B68DB6A1B069A4201D0012300E04D
:1047A000002318461837BD4680BD00BF00380240C0
:1047B00080B584B000AF786039607B68002B01D190
:1047C0000123CCE0684B1B6803F007033A689A4268
:1047D0000CD9654B3A68D2B21A70634B1B6803F070
:1047E00007033A689A4201D00123B8E07B681B684E
:1047F00003F00203002B20D07B681B6803F0040346
:10480000002B05D0594B9B68584A43F4E053936002
:104810007B681B6803F00803002B05D0534B9B6893
:10482000524A43F460439360504B9B6823F0F0027C
:104830007B689B684D4913438B607B681B6803F062
:104840000103002B44D07B685B68012B07D1474BE9
:104850001B6803F40033002B19D101237FE07B6830
:104860005B68022B03D07B685B68032B07D13F4B4F
:104870001B6803F00073002B09D101236FE03B4B51
:104880001B6803F00203002B01D1012367E0374BC3
:104890009B6823F003027B685B68344913438B6099
:1048A000FCF730FFF8600AE0FCF72CFF0246FB68DB
:1048B000D31A41F28832934201D903234FE02B4BA4
:1048C0009B6803F00C027B685B689B009A42EBD10B
:1048D000254B1B6803F007033A689A420CD2224B1F
:1048E0003A68D2B21A70204B1B6803F007033A688B
:1048F0009A4201D0012332E07B681B6803F0040375
:10490000002B08D0194B9B6823F4E0527B68DB68CE
:10491000164913438B607B681B6803F00803002B68
:1049200009D0124B9B6823F460427B681B69DB0053
:104930000E4913438B6000F021F802460B4B9B6835
:104940001B0903F00F030A49CB5C22FA03F3094A5F
:104950001360094B1B681846FCF790FE00231846AD
:104960001037BD4680BD00BF003C02400038024009
:1049700000A50008280000202C0000202DE9B04FE1
:1049800090B000AF00237B630023FB6300233B63F5
:104990000023BB63594B9B6803F00C03082B0DD01D
:1049A000082B00F2A180002B02D0042B03D09BE047
:1049B000534BBB639BE0534BBB6398E04F4B5B682F
:1049C00003F03F037B634D4B5B6803F48003002BD4
:1049D00028D04A4B5B689B0900223B627A623B6AA3
:1049E000C3F308000021474B03FB01F2002300FB47
:1049F00003F31344434AA0FB0212FA620A46BA6266
:104A0000FA6A1344FB627B6B0022BB61FA61D7E94F
:104A10000623D7E90A01FBF73BFC02460B46134687
:104A2000FB6353E0354B5B689B0900223B617A6175
:104A30003B69C3F3080A4FF0000B52465B464FF048
:104A400000004FF00001590141EAD26150010246D5
:104A50000B46B2EB0A0863EB0B094FF000024FF074
:104A600000034FEA891343EA98634FEA8812B2EBD6
:104A7000080463EB09054FF000024FF00003EB0060
:104A800043EA5473E20014461D4614EB0A033B60EC
:104A900045EB0B037B604FF000024FF00003D7E9BA
:104AA000004529468B02214643EA915321468A025A
:104AB000104619467B6B0022BB60FA60D7E90223DF
:104AC000FBF7E6FB02460B461346FB630B4B5B68AA
:104AD0001B0C03F0030301335B003B63FA6B3B6B7E
:104AE000B2FBF3F3BB6302E0054BBB6300BFBB6BE0
:104AF00018464037BD46BDE8B08F00BF00380240C1
:104B00000024F40040787D0180B400AF034B1B68A3
:104B10001846BD465DF8047B704700BF28000020A2
:104B200080B582B000AF78607B68002B01D1012393
:104B300041E07B6893F83D30DBB2002B06D17B6807
:104B4000002283F83C207868FCF74AFC7B6802224C
:104B500083F83D207B681A687B6804331946104649
:104B600000F01CFB7B68012283F846207B68012251
:104B700083F83E207B68012283F83F207B68012276
:104B800083F840207B68012283F841207B68012262
:104B900083F842207B68012283F843207B6801224E
:104BA00083F844207B68012283F845207B6801223A
:104BB00083F83D20002318460837BD4680BD00001D
:104BC00080B485B000AF78607B6893F83D30DBB28D
:104BD000012B01D001233CE07B68022283F83D20B9
:104BE0007B681B681E4A934218D07B681B68B3F130
:104BF000804F13D07B681B681A4A93420ED07B68A3
:104C00001B68194A934209D07B681B68174A934274
:104C100004D07B681B68164A934211D17B681B68DD
:104C20009B6803F00703FB60FB68062B10D07B68D2
:104C30001B681A687B681B6842F001021A6007E073
:104C40007B681B681A687B681B6842F001021A6067
:104C5000002318461437BD465DF8047B704700BF3B
:104C6000000001400004004000080040000C00402B
:104C70000040014080B582B000AF78607B68002BB7
:104C800001D1012341E07B6893F83D30DBB2002B7A
:104C900006D17B68002283F83C20786800F039F860
:104CA0007B68022283F83D207B681A687B680433A6
:104CB0001946104600F072FA7B68012283F84620FC
:104CC0007B68012283F83E207B68012283F83F2025
:104CD0007B68012283F840207B68012283F8412011
:104CE0007B68012283F842207B68012283F84320FD
:104CF0007B68012283F844207B68012283F84520E9
:104D00007B68012283F83D20002318460837BD4602
:104D100080BD80B483B000AF786000BF0C37BD4663
:104D20005DF8047B7047000080B584B000AF786008
:104D300039603B68002B09D17B6893F83E30DBB2C9
:104D4000012B14BF01230023DBB222E03B68042BBC
:104D500009D17B6893F83F30DBB2012B14BF0123EC
:104D60000023DBB215E03B68082B09D17B6893F880
:104D70004030DBB2012B14BF01230023DBB208E07B
:104D80007B6893F84130DBB2012B14BF0123002371
:104D9000DBB2002B01D0012368E03B68002B04D17B
:104DA0007B68022283F83E2013E03B68042B04D189
:104DB0007B68022283F83F200BE03B68082B04D17C
:104DC0007B68022283F8402003E07B68022283F89C
:104DD00041207B681B6801223968184600F084FC7A
:104DE0007B681B68234A934207D17B681B685A6C17
:104DF0007B681B6842F400425A647B681B681D4A4A
:104E0000934218D07B681B68B3F1804F13D07B6846
:104E10001B68194A93420ED07B681B68174A93425D
:104E200009D07B681B68164A934204D07B681B68D4
:104E3000144A934211D17B681B689B6803F00703F7
:104E4000FB60FB68062B10D07B681B681A687B68C8
:104E50001B6842F001021A6007E07B681B681A6851
:104E60007B681B6842F001021A6000231846103765
:104E7000BD4680BD00000140000400400008004025
:104E8000000C00400040014080B586B000AFF860E3
:104E9000B9607A600023FB75FB6893F83C30012B06
:104EA00001D10223AEE0FB68012283F83C207B683D
:104EB0000C2B00F29F8001A252F823F0F14E000863
:104EC000F54F0008F54F0008F54F0008314F000876
:104ED000F54F0008F54F0008F54F0008734F000824
:104EE000F54F0008F54F0008F54F0008B34F0008D4
:104EF000FB681B68B968184600F0D0F9FB681B68AE
:104F00009A69FB681B6842F008029A61FB681B689B
:104F10009A69FB681B6822F004029A61FB681B68AF
:104F20009969BB681A69FB681B680A439A6164E067
:104F3000FB681B68B968184600F016FAFB681B6826
:104F40009A69FB681B6842F400629A61FB681B68FF
:104F50009A69FB681B6822F480629A61FB681B688F
:104F60009969BB681B691A02FB681B680A439A614E
:104F700043E0FB681B68B968184600F061FAFB68FB
:104F80001B68DA69FB681B6842F00802DA61FB689B
:104F90001B68DA69FB681B6822F00402DA61FB68AF
:104FA0001B68D969BB681A69FB681B680A43DA6128
:104FB00023E0FB681B68B968184600F0ABFAFB6891
:104FC0001B68DA69FB681B6842F40062DA61FB68FF
:104FD0001B68DA69FB681B6822F48062DA61FB688F
:104FE0001B68D969BB681B691A02FB681B680A4306
:104FF000DA6102E00123FB7500BFFB68002283F841
:105000003C20FB7D18461837BD4680BD80B584B076
:1050100000AF786039600023FB737B6893F83C3005
:10502000012B01D10223B4E07B68012283F83C20EC
:105030007B68022283F83D207B681B689B68BB600D
:10504000BB6823F07703BB60BB6823F47F43BB607E
:105050007B681B68BA689A603B681B68B3F5005FA1
:105060003ED0B3F5005F00F28780B3F5805F00F0BB
:105070008680B3F5805F7FD8702B1AD0702B7BD8D9
:10508000602B50D0602B77D8502B3CD0502B73D84E
:10509000402B58D0402B6FD8302B64D0302B6BD89E
:1050A000202B60D0202B67D8002B5CD0102B5AD03F
:1050B00062E07B6818683B6899683B685A683B689F
:1050C000DB6800F0F1FA7B681B689B68BB60BB681B
:1050D00043F07703BB607B681B68BA689A604FE057
:1050E0007B6818683B6899683B685A683B68DB686E
:1050F00000F0DAFA7B681B689A687B681B6842F4E8
:1051000080429A603CE07B6818683B6859683B685D
:10511000DB681A4600F04EFA7B681B68502118467F
:1051200000F0A7FA2CE07B6818683B6859683B6878
:10513000DB681A4600F06DFA7B681B686021184630
:1051400000F097FA1CE07B6818683B6859683B6878
:10515000DB681A4600F02EFA7B681B68402118466F
:1051600000F087FA0CE07B681A683B681B681946F8
:10517000104600F07EFA03E00123FB7300E000BF5D
:105180007B68012283F83D207B68002283F83C2065
:10519000FB7B18461037BD4680BD000080B485B04B
:1051A00000AF786039607B681B68FB607B68344ABD
:1051B00093420FD07B68B3F1804F0BD07B68314AAC
:1051C000934207D07B68304A934203D07B682F4AD2
:1051D000934208D1FB6823F07003FB603B685B6877
:1051E000FA681343FB607B68254A93421BD07B68B7
:1051F000B3F1804F17D07B68224A934213D07B686B
:10520000214A93420FD07B68204A93420BD07B689F
:105210001F4A934207D07B681E4A934203D07B68A3
:105220001D4A934208D1FB6823F44073FB603B683E
:10523000DB68FA681343FB60FB6823F080023B687D
:105240005B691343FB607B68FA681A603B689A6885
:105250007B68DA623B681A687B689A627B68084AF6
:10526000934203D13B681A697B681A637B68012209
:105270005A6100BF1437BD465DF8047B704700BF1C
:10528000000001400004004000080040000C004005
:1052900000400140004401400048014080B487B014
:1052A00000AF786039607B681B6A23F001027B687D
:1052B0001A627B681B6A7B617B685B683B617B6809
:1052C0009B69FB60FB6823F07003FB60FB6823F0C5
:1052D0000303FB603B681B68FA681343FB607B6950
:1052E00023F002037B613B689B687A6913437B610F
:1052F0007B681C4A93420CD17B6923F008037B61D5
:105300003B68DB687A6913437B617B6923F00403A4
:105310007B617B68134A934211D13B6923F480730C
:105320003B613B6923F400733B613B685B693A690D
:1053300013433B613B689B693A6913433B617B685C
:105340003A695A607B68FA689A613B685A687B6878
:105350005A637B687A691A6200BF1C37BD465DF8E4
:10536000047B70470000014080B487B000AF7860D4
:1053700039607B681B6A23F010027B681A627B68C5
:105380001B6A7B617B685B683B617B689B69FB6038
:10539000FB6823F4E043FB60FB6823F44073FB608D
:1053A0003B681B681B02FA681343FB607B6923F0B0
:1053B00020037B613B689B681B017A6913437B6117
:1053C0007B681E4A93420DD17B6923F080037B6189
:1053D0003B68DB681B017A6913437B617B6923F0BF
:1053E00040037B617B68154A934213D13B6923F4E8
:1053F00080633B613B6923F400633B613B685B690D
:105400009B003A6913433B613B689B699B003A6987
:1054100013433B617B683A695A607B68FA689A611A
:105420003B685A687B689A637B687A691A6200BF36
:105430001C37BD465DF8047B704700BF000001408B
:1054400080B487B000AF786039607B681B6A23F452
:1054500080727B681A627B681B6A7B617B685B6811
:105460003B617B68DB69FB60FB6823F07003FB60DA
:10547000FB6823F00303FB603B681B68FA68134377
:10548000FB607B6923F400737B613B689B681B02B4
:105490007A6913437B617B681D4A93420DD17B6916
:1054A00023F400637B613B68DB681B027A6913436A
:1054B0007B617B6923F480637B617B68144A934240
:1054C00013D13B6923F480533B613B6923F40053C0
:1054D0003B613B685B691B013A6913433B613B6875
:1054E0009B691B013A6913433B617B683A695A60C7
:1054F0007B68FA68DA613B685A687B68DA637B68C4
:105500007A691A6200BF1C37BD465DF8047B70479C
:105510000000014080B487B000AF786039607B68DC
:105520001B6A23F480527B681A627B681B6A3B61AA
:105530007B685B687B617B68DB69FB60FB6823F4ED
:10554000E043FB60FB6823F44073FB603B681B682F
:105550001B02FA681343FB603B6923F400533B6171
:105560003B689B681B033A6913433B617B68104AA5
:10557000934209D17B6923F480437B613B685B697B
:105580009B017A6913437B617B687A695A607B6807
:10559000FA68DA613B685A687B681A647B683A6922
:1055A0001A6200BF1C37BD465DF8047B704700BF20
:1055B0000000014080B487B000AFF860B9607A6045
:1055C000FB681B6A7B61FB681B6A23F00102FB68B6
:1055D0001A62FB689B693B613B6923F0F0033B6106
:1055E0007B681B013A6913433B617B6923F00A0323
:1055F0007B617A69BB6813437B61FB683A699A6196
:10560000FB687A691A6200BF1C37BD465DF8047BEF
:10561000704780B487B000AFF860B9607A60FB680B
:105620001B6A23F01002FB681A62FB689B697B61AE
:10563000FB681B6A3B617B6923F470437B617B6879
:105640001B037A6913437B613B6923F0A0033B6131
:10565000BB681B013A6913433B61FB687A699A6135
:10566000FB683A691A6200BF1C37BD465DF8047BCF
:10567000704780B485B000AF786039607B689B6804
:10568000FB60FB6823F07003FB603A68FB68134320
:1056900043F00703FB607B68FA689A6000BF143729
:1056A000BD465DF8047B704780B487B000AFF860FA
:1056B000B9607A603B60FB689B687B617B6923F41F
:1056C0007F437B613B681A027B681A43BB681343C4
:1056D0007A6913437B61FB687A699A6000BF1C3763
:1056E000BD465DF8047B704780B487B000AFF860BA
:1056F000B9607A60BB6803F01F03012202FA03F36A
:105700007B61FB681A6A7B69DB431A40FB681A629B
:10571000FB681A6ABB6803F01F03796801FA03F398
:105720001A43FB681A6200BF1C37BD465DF8047B54
:105730007047000080B485B000AF786039607B6846
:1057400093F83C30012B01D1022350E07B68012209
:1057500083F83C207B68022283F83D207B681B682D
:105760005B68FB607B681B689B68BB60FB6823F021
:105770007003FB603B681B68FA681343FB607B683F
:105780001B68FA685A607B681B681C4A934218D0F1
:105790007B681B68B3F1804F13D07B681B68184A85
:1057A00093420ED07B681B68164A934209D07B68EF
:1057B0001B68154A934204D07B681B68134A9342C6
:1057C0000CD1BB6823F08003BB603B685B68BA68A0
:1057D0001343BB607B681B68BA689A607B680122D0
:1057E00083F83D207B68002283F83C200023184684
:1057F0001437BD465DF8047B704700BF00000140D0
:105800000004004000080040000C0040004001403F
:1058100080B485B000AF786039600023FB607B689E
:1058200093F83C30012B01D102233DE07B6801223B
:1058300083F83C20FB6823F0FF023B68DB681343DE
:10584000FB60FB6823F440723B689B681343FB607A
:10585000FB6823F480623B685B681343FB60FB6872
:1058600023F400623B681B681343FB60FB6823F46E
:1058700080523B681B691343FB60FB6823F40052B2
:105880003B685B691343FB60FB6823F480423B6821
:10589000DB691343FB607B681B68FA685A647B68AA
:1058A000002283F83C20002318461437BD465DF8DB
:1058B000047B704784B080B584B000AF786007F196
:1058C0001C0080E80E003B6B012B22D17B689B6B98
:1058D00023F480327B689A637B68DB6823F484035B
:1058E00023F040037A68D3607B68DB6823F44012BE
:1058F0007B68DA60FB6C012B05D17B68DB6843F4C5
:1059000080127B68DA60786801F0EEFB0346FB7377
:105910001AE07B68DB6843F040027B68DA607868F5
:1059200001F0E2FB0346FB733B6C002B06D17B6866
:105930009B6B43F480327B689A6305E07B689B6BCA
:1059400023F480327B689A63BB6A012B0BD17B689E
:105950009B6843F006027B689A607B689B6843F013
:1059600020027B689A60FB7B18461037BD46BDE875
:10597000804004B07047000080B487B000AFF8608A
:10598000B9601346FB71FB79022B65D1BB68414AB4
:10599000934206D9BB68404A934202D20F237B61EF
:1059A00062E0BB683C4A934206D3BB683B4A9342E1
:1059B00002D20E237B6157E0BB68384A934206D37C
:1059C000BB68374A934202D20D237B614CE0BB682F
:1059D000334A934206D3BB68324A934202D80C231F
:1059E0007B6141E0BB682F4A934206D9BB682E4ACF
:1059F000934202D80B237B6136E0BB682A4A93426C
:105A000006D9BB68294A934202D80A237B612BE05E
:105A1000BB68264A934206D9BB68254A934202D204
:105A200009237B6120E0BB68214A934206D3BB680F
:105A3000204A934202D808237B6115E0BB681D4AC7
:105A4000934206D9BB681C4A934202D207237B616A
:105A50000AE006237B6107E0FB79002B02D10923D2
:105A60007B6101E009237B61FB68DB6823F47052F2
:105A7000FB68DA60FB68DA687B699B0203F47053A9
:105A80001A43FB68DA60002318461C37BD465DF8F0
:105A9000047B7047BFACD800C0E1E4000024F400F0
:105AA000807306019F491A01FF2C31013FA44C016C
:105AB00000366E011FABA6010048E80180B483B038
:105AC00000AF78607B689B6843F001027B689A6056
:105AD000002318460C37BD465DF8047B704780B440
